{
  "address": "0x057A481461a29c4C4b3c53774daA6afaF5f981Df",
  "abi": [
    {
      "inputs": [
        {
          "internalType": "address",
          "name": "_token",
          "type": "address"
        },
        {
          "internalType": "address",
          "name": "_underlyingToken",
          "type": "address"
        }
      ],
      "stateMutability": "nonpayable",
      "type": "constructor"
    },
    {
      "inputs": [
        {
          "internalType": "address",
          "name": "target",
          "type": "address"
        },
        {
          "internalType": "bool",
          "name": "success",
          "type": "bool"
        },
        {
          "internalType": "bytes",
          "name": "data",
          "type": "bytes"
        }
      ],
      "name": "ERC20CallFailed",
      "type": "error"
    },
    {
      "inputs": [],
      "name": "IllegalState",
      "type": "error"
    },
    {
      "inputs": [
        {
          "internalType": "uint256",
          "name": "amount",
          "type": "uint256"
        },
        {
          "internalType": "uint256",
          "name": "minimumAmountOut",
          "type": "uint256"
        }
      ],
      "name": "SlippageExceeded",
      "type": "error"
    },
    {
      "inputs": [],
      "name": "price",
      "outputs": [
        {
          "internalType": "uint256",
          "name": "",
          "type": "uint256"
        }
      ],
      "stateMutability": "view",
      "type": "function"
    },
    {
      "inputs": [],
      "name": "token",
      "outputs": [
        {
          "internalType": "address",
          "name": "",
          "type": "address"
        }
      ],
      "stateMutability": "view",
      "type": "function"
    },
    {
      "inputs": [],
      "name": "underlyingToken",
      "outputs": [
        {
          "internalType": "address",
          "name": "",
          "type": "address"
        }
      ],
      "stateMutability": "view",
      "type": "function"
    },
    {
      "inputs": [
        {
          "internalType": "uint256",
          "name": "amount",
          "type": "uint256"
        },
        {
          "internalType": "address",
          "name": "recipient",
          "type": "address"
        },
        {
          "internalType": "uint256",
          "name": "minimumAmountOut",
          "type": "uint256"
        }
      ],
      "name": "unwrap",
      "outputs": [
        {
          "internalType": "uint256",
          "name": "",
          "type": "uint256"
        }
      ],
      "stateMutability": "nonpayable",
      "type": "function"
    },
    {
      "inputs": [
        {
          "internalType": "uint256",
          "name": "amount",
          "type": "uint256"
        },
        {
          "internalType": "address",
          "name": "recipient",
          "type": "address"
        },
        {
          "internalType": "uint256",
          "name": "minimumAmountOut",
          "type": "uint256"
        }
      ],
      "name": "wrap",
      "outputs": [
        {
          "internalType": "uint256",
          "name": "",
          "type": "uint256"
        }
      ],
      "stateMutability": "nonpayable",
      "type": "function"
    }
  ],
  "transactionHash": "0xfd6e8c99d55d93163771645ea70aca689b1e63175fc9d3d96a25185b43181806",
  "args": [
    "0xdA816459F1AB5631232FE5e97a05BBBb94970c95",
    "0x6B175474E89094C44Da98b954EedeAC495271d0F"
  ],
  "solcInputHash": "60411fa1bdf33562804d9d99b5fdd659",
  "bytecode": "0x60c060405234801561001057600080fd5b506040516109b43803806109b483398101604081905261002f91610062565b6001600160a01b039182166080521660a052610095565b80516001600160a01b038116811461005d57600080fd5b919050565b6000806040838503121561007557600080fd5b61007e83610046565b915061008c60208401610046565b90509250929050565b60805160a0516108bd6100f760003960008181606101528181610321015261034d01526000818160e10152818161010a015281816101380152818161019101528181610237015281816102950152818161036e01526103bc01526108bd6000f3fe608060405234801561001057600080fd5b50600436106100575760003560e01c80632495a5991461005c5780633f069a43146100a0578063a035b1fe146100c1578063d01ab8ee146100c9578063fc0c546a146100dc575b600080fd5b6100837f000000000000000000000000000000000000000000000000000000000000000081565b6040516001600160a01b0390911681526020015b60405180910390f35b6100b36100ae366004610745565b610103565b604051908152602001610097565b6100b3610291565b6100b36100d7366004610745565b61031a565b6100837f000000000000000000000000000000000000000000000000000000000000000081565b60006101317f0000000000000000000000000000000000000000000000000000000000000000333087610460565b600061015d7f000000000000000000000000000000000000000000000000000000000000000030610560565b604051631cc6d2f960e31b8152600481018790526001600160a01b03868116602483015261271060448301529192506000917f0000000000000000000000000000000000000000000000000000000000000000169063e63697c8906064016020604051808303816000875af11580156101da573d6000803e3d6000fd5b505050506040513d601f19601f820116820180604052508101906101fe9190610789565b905083811015610230576040516371c4efed60e01b815260048101829052602481018590526044015b60405180910390fd5b600061025c7f000000000000000000000000000000000000000000000000000000000000000030610560565b90508661026982856107a2565b1461028757604051634a613c4160e01b815260040160405180910390fd5b5095945050505050565b60007f00000000000000000000000000000000000000000000000000000000000000006001600160a01b03166399530b066040518163ffffffff1660e01b8152600401602060405180830381865afa1580156102f1573d6000803e3d6000fd5b505050506040513d601f19601f820116820180604052508101906103159190610789565b905090565b60006103487f0000000000000000000000000000000000000000000000000000000000000000333087610460565b6103937f00000000000000000000000000000000000000000000000000000000000000007f00000000000000000000000000000000000000000000000000000000000000008661064e565b604051636e553f6560e01b8152600481018590526001600160a01b0384811660248301526000917f000000000000000000000000000000000000000000000000000000000000000090911690636e553f65906044016020604051808303816000875af1158015610407573d6000803e3d6000fd5b505050506040513d601f19601f8201168201806040525081019061042b9190610789565b905082811015610458576040516371c4efed60e01b81526004810182905260248101849052604401610227565b949350505050565b604080516001600160a01b0385811660248301528481166044830152606480830185905283518084039091018152608490920183526020820180516001600160e01b03166323b872dd60e01b17905291516000928392908816916104c491906107f7565b6000604051808303816000865af19150503d8060008114610501576040519150601f19603f3d011682016040523d82523d6000602084013e610506565b606091505b509150915081158061053457508051158015906105345750808060200190518101906105329190610813565b155b156105585785828260405163e7e40b5b60e01b81526004016102279392919061083c565b505050505050565b604080516001600160a01b0383811660248084019190915283518084039091018152604490920183526020820180516001600160e01b03166370a0823160e01b179052915160009283928392918716916105ba91906107f7565b600060405180830381855afa9150503d80600081146105f5576040519150601f19603f3d011682016040523d82523d6000602084013e6105fa565b606091505b509150915081158061060d575060208151105b156106315784828260405163e7e40b5b60e01b81526004016102279392919061083c565b808060200190518101906106459190610789565b95945050505050565b604080516001600160a01b038481166024830152604480830185905283518084039091018152606490920183526020820180516001600160e01b031663095ea7b360e01b17905291516000928392908716916106aa91906107f7565b6000604051808303816000865af19150503d80600081146106e7576040519150601f19603f3d011682016040523d82523d6000602084013e6106ec565b606091505b509150915081158061071a575080511580159061071a5750808060200190518101906107189190610813565b155b1561073e5784828260405163e7e40b5b60e01b81526004016102279392919061083c565b5050505050565b60008060006060848603121561075a57600080fd5b8335925060208401356001600160a01b038116811461077857600080fd5b929592945050506040919091013590565b60006020828403121561079b57600080fd5b5051919050565b6000828210156107c257634e487b7160e01b600052601160045260246000fd5b500390565b60005b838110156107e25781810151838201526020016107ca565b838111156107f1576000848401525b50505050565b600082516108098184602087016107c7565b9190910192915050565b60006020828403121561082557600080fd5b8151801515811461083557600080fd5b9392505050565b60018060a01b0384168152821515602082015260606040820152600082518060608401526108718160808501602087016107c7565b601f01601f19169190910160800194935050505056fea2646970667358221220cf783ddc6ede064892f43e364a15d6bcfa3458368b6cccc6ebb41e84825eace864736f6c634300080b0033",
  "devdoc": {
    "author": "Alchemix Finance",
    "errors": {
      "ERC20CallFailed(address,bool,bytes)": [
        {
          "params": {
            "data": "The resulting data from the call. This is error data when the call was not a success. Otherwise,                this is malformed data when the call was a success.",
            "success": "If the call to the token was a success.",
            "target": "The target address."
          }
        }
      ],
      "SlippageExceeded(uint256,uint256)": [
        {
          "params": {
            "amount": "The amount of underlying or yield tokens returned by the operation.",
            "minimumAmountOut": "The minimum amount of the underlying or yield token that was expected when performing                         the operation."
          }
        }
      ]
    },
    "kind": "dev",
    "methods": {
      "price()": {
        "returns": {
          "_0": "The price."
        }
      },
      "unwrap(uint256,address,uint256)": {
        "params": {
          "amount": "The amount of yield-tokens to redeem.",
          "minimumAmountOut": "The minimum amount of underlying tokens that are acceptable coming out from the                         operation.",
          "recipient": "The recipient of the resulting underlying-tokens."
        },
        "returns": {
          "_0": "The amount of underlying tokens unwrapped to `recipient`."
        }
      },
      "wrap(uint256,address,uint256)": {
        "params": {
          "amount": "The amount of the underlying token to wrap.",
          "minimumAmountOut": "The minimum amount of yield tokens that are acceptable coming out from the operation.",
          "recipient": "The address which will receive the yield tokens."
        },
        "returns": {
          "_0": "The amount of yield tokens minted to `recipient`."
        }
      }
    },
    "stateVariables": {
      "token": {
        "return": "The address of the yield token.",
        "returns": {
          "_0": "The address of the yield token."
        }
      },
      "underlyingToken": {
        "return": "The address of the underlying token.",
        "returns": {
          "_0": "The address of the underlying token."
        }
      }
    },
    "title": "YearnTokenAdapter",
    "version": 1
  },
  "userdoc": {
    "errors": {
      "ERC20CallFailed(address,bool,bytes)": [
        {
          "notice": "An error used to indicate that a call to an ERC20 contract failed."
        }
      ],
      "IllegalState()": [
        {
          "notice": "An error used to indicate that an action could not be completed because the contract either already existed         or entered an illegal condition which is not recoverable from."
        }
      ],
      "SlippageExceeded(uint256,uint256)": [
        {
          "notice": "An error which is used to indicate that the slippage of a wrap or unwrap operation was exceeded."
        }
      ]
    },
    "kind": "user",
    "methods": {
      "price()": {
        "notice": "Gets the number of underlying tokens that a single whole yield token is redeemable for."
      },
      "token()": {
        "notice": "Gets the address of the yield token that this adapter supports."
      },
      "underlyingToken()": {
        "notice": "Gets the address of the underlying token that the yield token wraps."
      },
      "unwrap(uint256,address,uint256)": {
        "notice": "Unwraps `amount` yield tokens into the underlying token."
      },
      "wrap(uint256,address,uint256)": {
        "notice": "Wraps `amount` underlying tokens into the yield token."
      }
    },
    "version": 1
  },
  "storageLayout": {
    "storage": [],
    "types": null
  }
}