{
  "address": "0x35b2c16de6F283Ab0949964d90cCf930f378ade6",
  "abi": [
    {
      "inputs": [],
      "stateMutability": "nonpayable",
      "type": "constructor"
    },
    {
      "inputs": [],
      "name": "IllegalState",
      "type": "error"
    },
    {
      "inputs": [],
      "name": "Unauthorized",
      "type": "error"
    },
    {
      "anonymous": false,
      "inputs": [
        {
          "indexed": false,
          "internalType": "address",
          "name": "account",
          "type": "address"
        }
      ],
      "name": "AccountAdded",
      "type": "event"
    },
    {
      "anonymous": false,
      "inputs": [
        {
          "indexed": false,
          "internalType": "address",
          "name": "account",
          "type": "address"
        }
      ],
      "name": "AccountRemoved",
      "type": "event"
    },
    {
      "anonymous": false,
      "inputs": [
        {
          "indexed": true,
          "internalType": "address",
          "name": "previousOwner",
          "type": "address"
        },
        {
          "indexed": true,
          "internalType": "address",
          "name": "newOwner",
          "type": "address"
        }
      ],
      "name": "OwnershipTransferred",
      "type": "event"
    },
    {
      "anonymous": false,
      "inputs": [],
      "name": "WhitelistDisabled",
      "type": "event"
    },
    {
      "inputs": [
        {
          "internalType": "address",
          "name": "caller",
          "type": "address"
        }
      ],
      "name": "add",
      "outputs": [],
      "stateMutability": "nonpayable",
      "type": "function"
    },
    {
      "inputs": [],
      "name": "disable",
      "outputs": [],
      "stateMutability": "nonpayable",
      "type": "function"
    },
    {
      "inputs": [],
      "name": "disabled",
      "outputs": [
        {
          "internalType": "bool",
          "name": "",
          "type": "bool"
        }
      ],
      "stateMutability": "view",
      "type": "function"
    },
    {
      "inputs": [],
      "name": "getAddresses",
      "outputs": [
        {
          "internalType": "address[]",
          "name": "",
          "type": "address[]"
        }
      ],
      "stateMutability": "view",
      "type": "function"
    },
    {
      "inputs": [
        {
          "internalType": "address",
          "name": "account",
          "type": "address"
        }
      ],
      "name": "isWhitelisted",
      "outputs": [
        {
          "internalType": "bool",
          "name": "",
          "type": "bool"
        }
      ],
      "stateMutability": "view",
      "type": "function"
    },
    {
      "inputs": [],
      "name": "owner",
      "outputs": [
        {
          "internalType": "address",
          "name": "",
          "type": "address"
        }
      ],
      "stateMutability": "view",
      "type": "function"
    },
    {
      "inputs": [
        {
          "internalType": "address",
          "name": "caller",
          "type": "address"
        }
      ],
      "name": "remove",
      "outputs": [],
      "stateMutability": "nonpayable",
      "type": "function"
    },
    {
      "inputs": [],
      "name": "renounceOwnership",
      "outputs": [],
      "stateMutability": "nonpayable",
      "type": "function"
    },
    {
      "inputs": [
        {
          "internalType": "address",
          "name": "newOwner",
          "type": "address"
        }
      ],
      "name": "transferOwnership",
      "outputs": [],
      "stateMutability": "nonpayable",
      "type": "function"
    }
  ],
  "transactionHash": "0x4809b875a0246e8e260077f0fd52156bd57e9bfc0717739cf26f5850067ac7b1",
  "args": [],
  "solcInputHash": "60411fa1bdf33562804d9d99b5fdd659",
  "bytecode": "0x608060405234801561001057600080fd5b5061001a3361001f565b61006f565b600080546001600160a01b038381166001600160a01b0319831681178455604051919092169283917f8be0079c531659141344cd1fd0a4f28419497f9722a3daafe3b4186f6b6457e09190a35050565b6107a68061007e6000396000f3fe608060405234801561001057600080fd5b50600436106100935760003560e01c8063715018a611610066578063715018a6146100f05780638da5cb5b146100f8578063a39fac1214610113578063ee07080514610128578063f2fde38b1461013557600080fd5b80630a3b0a4f1461009857806329092d0e146100ad5780632f2770db146100c05780633af32abf146100c8575b600080fd5b6100ab6100a636600461066b565b610148565b005b6100ab6100bb36600461066b565b6101c0565b6100ab610231565b6100db6100d636600461066b565b610271565b60405190151581526020015b60405180910390f35b6100ab6102a2565b6000546040516001600160a01b0390911681526020016100e7565b61011b61030d565b6040516100e7919061069b565b6003546100db9060ff1681565b6100ab61014336600461066b565b610372565b61015061043d565b60035460ff161561017457604051634a613c4160e01b815260040160405180910390fd5b61017f600182610467565b506040516001600160a01b03821681527f8f42195a0bbfa58954be4349deb9efc38bdb9c298e529f705f8bc1e38bce0399906020015b60405180910390a150565b6101c861043d565b60035460ff16156101ec57604051634a613c4160e01b815260040160405180910390fd5b6101f76001826104d7565b506040516001600160a01b03821681527fbf2e373b8263f701e10efcac80ea442afcb29c6852b3a42b0b46cc8edaaf54a7906020016101b5565b61023961043d565b6003805460ff191660011790556040517f212c6e1d3045c9581ef0adf2504dbb1d137f52f38162ccf77a16c69d14eba5c390600090a1565b60035460009060ff168061029c57506001600160a01b03821660009081526002602052604090205415155b92915050565b6000546001600160a01b031633146103015760405162461bcd60e51b815260206004820181905260248201527f4f776e61626c653a2063616c6c6572206973206e6f7420746865206f776e657260448201526064015b60405180910390fd5b61030b600061061b565b565b6060600160000180548060200260200160405190810160405280929190818152602001828054801561036857602002820191906000526020600020905b81546001600160a01b0316815260019091019060200180831161034a575b5050505050905090565b6000546001600160a01b031633146103cc5760405162461bcd60e51b815260206004820181905260248201527f4f776e61626c653a2063616c6c6572206973206e6f7420746865206f776e657260448201526064016102f8565b6001600160a01b0381166104315760405162461bcd60e51b815260206004820152602660248201527f4f776e61626c653a206e6577206f776e657220697320746865207a65726f206160448201526564647265737360d01b60648201526084016102f8565b61043a8161061b565b50565b6000546001600160a01b0316331461030b576040516282b42960e81b815260040160405180910390fd5b6001600160a01b03811660009081526001830160205260408120541561048f5750600061029c565b508154600180820184556000848152602080822090930180546001600160a01b0319166001600160a01b03959095169485179055845493815293810190915260409092205590565b6001600160a01b03811660009081526001830160205260408120548061050157600091505061029c565b8061050b816106fe565b85549092506000915061052090600190610715565b90508082146105c05760008560000182815481106105405761054061072c565b60009182526020909120015486546001600160a01b039091169150819087908590811061056f5761056f61072c565b600091825260209091200180546001600160a01b0319166001600160a01b03929092169190911790556105a3836001610742565b6001600160a01b0390911660009081526001870160205260409020555b84548590806105d1576105d161075a565b60008281526020808220600019908401810180546001600160a01b03191690559092019092556001600160a01b039590951681526001958601909452505060408220919091555090565b600080546001600160a01b038381166001600160a01b0319831681178455604051919092169283917f8be0079c531659141344cd1fd0a4f28419497f9722a3daafe3b4186f6b6457e09190a35050565b60006020828403121561067d57600080fd5b81356001600160a01b038116811461069457600080fd5b9392505050565b6020808252825182820181905260009190848201906040850190845b818110156106dc5783516001600160a01b0316835292840192918401916001016106b7565b50909695505050505050565b634e487b7160e01b600052601160045260246000fd5b60008161070d5761070d6106e8565b506000190190565b600082821015610727576107276106e8565b500390565b634e487b7160e01b600052603260045260246000fd5b60008219821115610755576107556106e8565b500190565b634e487b7160e01b600052603160045260246000fdfea26469706673582212209c7d4a9dcae7a3fe3bcd743decc1a157c7f604b9621ef371e0dae5f74640dd6964736f6c634300080b0033",
  "devdoc": {
    "author": "Alchemix Finance",
    "kind": "dev",
    "methods": {
      "add(address)": {
        "details": "Adds an contract to the whitelist.",
        "params": {
          "caller": "The address to add to the whitelist."
        }
      },
      "disable()": {
        "details": "Disables the whitelist of the target whitelisted contract. This can only occur once. Once the whitelist is disabled, then it cannot be reenabled."
      },
      "getAddresses()": {
        "details": "Returns the list of addresses that are whitelisted for the given contract address.",
        "returns": {
          "_0": "The addresses that are whitelisted to interact with the given contract."
        }
      },
      "isWhitelisted(address)": {
        "details": "Checks that the `msg.sender` is whitelisted when it is not an EOA.",
        "params": {
          "account": "The account to check."
        },
        "returns": {
          "_0": "whitelisted A flag denoting if the given account is whitelisted."
        }
      },
      "owner()": {
        "details": "Returns the address of the current owner."
      },
      "remove(address)": {
        "details": "Adds a contract to the whitelist.",
        "params": {
          "caller": "The address to remove from the whitelist."
        }
      },
      "renounceOwnership()": {
        "details": "Leaves the contract without owner. It will not be possible to call `onlyOwner` functions anymore. Can only be called by the current owner. NOTE: Renouncing ownership will leave the contract without an owner, thereby removing any functionality that is only available to the owner."
      },
      "transferOwnership(address)": {
        "details": "Transfers ownership of the contract to a new account (`newOwner`). Can only be called by the current owner."
      }
    },
    "stateVariables": {
      "disabled": {
        "details": "Returns the disabled status of a given whitelist.",
        "return": "disabled A flag denoting if the given whitelist is disabled.",
        "returns": {
          "_0": "disabled A flag denoting if the given whitelist is disabled."
        }
      }
    },
    "title": "Whitelist",
    "version": 1
  },
  "userdoc": {
    "errors": {
      "IllegalState()": [
        {
          "notice": "An error used to indicate that an action could not be completed because the contract either already existed         or entered an illegal condition which is not recoverable from."
        }
      ],
      "Unauthorized()": [
        {
          "notice": "An error used to indicate that an action could not be completed because either the `msg.sender` or         `msg.origin` is not authorized."
        }
      ]
    },
    "kind": "user",
    "methods": {},
    "version": 1
  },
  "storageLayout": {
    "storage": [
      {
        "astId": 3129,
        "contract": "contracts/utils/Whitelist.sol:Whitelist",
        "label": "_owner",
        "offset": 0,
        "slot": "0",
        "type": "t_address"
      },
      {
        "astId": 21087,
        "contract": "contracts/utils/Whitelist.sol:Whitelist",
        "label": "addresses",
        "offset": 0,
        "slot": "1",
        "type": "t_struct(AddressSet)18506_storage"
      },
      {
        "astId": 21091,
        "contract": "contracts/utils/Whitelist.sol:Whitelist",
        "label": "disabled",
        "offset": 0,
        "slot": "3",
        "type": "t_bool"
      }
    ],
    "types": {
      "t_address": {
        "encoding": "inplace",
        "label": "address",
        "numberOfBytes": "20"
      },
      "t_array(t_address)dyn_storage": {
        "base": "t_address",
        "encoding": "dynamic_array",
        "label": "address[]",
        "numberOfBytes": "32"
      },
      "t_bool": {
        "encoding": "inplace",
        "label": "bool",
        "numberOfBytes": "1"
      },
      "t_mapping(t_address,t_uint256)": {
        "encoding": "mapping",
        "key": "t_address",
        "label": "mapping(address => uint256)",
        "numberOfBytes": "32",
        "value": "t_uint256"
      },
      "t_struct(AddressSet)18506_storage": {
        "encoding": "inplace",
        "label": "struct Sets.AddressSet",
        "members": [
          {
            "astId": 18501,
            "contract": "contracts/utils/Whitelist.sol:Whitelist",
            "label": "values",
            "offset": 0,
            "slot": "0",
            "type": "t_array(t_address)dyn_storage"
          },
          {
            "astId": 18505,
            "contract": "contracts/utils/Whitelist.sol:Whitelist",
            "label": "indexes",
            "offset": 0,
            "slot": "1",
            "type": "t_mapping(t_address,t_uint256)"
          }
        ],
        "numberOfBytes": "64"
      },
      "t_uint256": {
        "encoding": "inplace",
        "label": "uint256",
        "numberOfBytes": "32"
      }
    }
  }
}