{
  "address": "0x5951f159eF502f0571A5D7e136a580DcadEa42Eb",
  "abi": [
    {
      "inputs": [
        {
          "internalType": "address",
          "name": "_token",
          "type": "address"
        },
        {
          "internalType": "address",
          "name": "_underlyingToken",
          "type": "address"
        }
      ],
      "stateMutability": "nonpayable",
      "type": "constructor"
    },
    {
      "inputs": [
        {
          "internalType": "address",
          "name": "target",
          "type": "address"
        },
        {
          "internalType": "bool",
          "name": "success",
          "type": "bool"
        },
        {
          "internalType": "bytes",
          "name": "data",
          "type": "bytes"
        }
      ],
      "name": "ERC20CallFailed",
      "type": "error"
    },
    {
      "inputs": [],
      "name": "IllegalState",
      "type": "error"
    },
    {
      "inputs": [],
      "name": "price",
      "outputs": [
        {
          "internalType": "uint256",
          "name": "",
          "type": "uint256"
        }
      ],
      "stateMutability": "view",
      "type": "function"
    },
    {
      "inputs": [],
      "name": "token",
      "outputs": [
        {
          "internalType": "address",
          "name": "",
          "type": "address"
        }
      ],
      "stateMutability": "view",
      "type": "function"
    },
    {
      "inputs": [],
      "name": "underlyingToken",
      "outputs": [
        {
          "internalType": "address",
          "name": "",
          "type": "address"
        }
      ],
      "stateMutability": "view",
      "type": "function"
    },
    {
      "inputs": [
        {
          "internalType": "uint256",
          "name": "amount",
          "type": "uint256"
        },
        {
          "internalType": "address",
          "name": "recipient",
          "type": "address"
        }
      ],
      "name": "unwrap",
      "outputs": [
        {
          "internalType": "uint256",
          "name": "",
          "type": "uint256"
        }
      ],
      "stateMutability": "nonpayable",
      "type": "function"
    },
    {
      "inputs": [],
      "name": "version",
      "outputs": [
        {
          "internalType": "string",
          "name": "",
          "type": "string"
        }
      ],
      "stateMutability": "view",
      "type": "function"
    },
    {
      "inputs": [
        {
          "internalType": "uint256",
          "name": "amount",
          "type": "uint256"
        },
        {
          "internalType": "address",
          "name": "recipient",
          "type": "address"
        }
      ],
      "name": "wrap",
      "outputs": [
        {
          "internalType": "uint256",
          "name": "",
          "type": "uint256"
        }
      ],
      "stateMutability": "nonpayable",
      "type": "function"
    }
  ],
  "transactionHash": "0x5255d00b58f621a765591e79faa50099702b404d9590184aad27244f67d1d648",
  "args": [
    "0x7Da96a3891Add058AdA2E826306D812C638D87a7",
    "0xdAC17F958D2ee523a2206206994597C13D831ec7"
  ],
  "solcInputHash": "3b5b3302a8b57b961a64a46cbd4bbc65",
  "bytecode": "0x60c060405234801561001057600080fd5b506040516109a73803806109a783398101604081905261002f91610062565b6001600160a01b039182166080521660a052610095565b80516001600160a01b038116811461005d57600080fd5b919050565b6000806040838503121561007557600080fd5b61007e83610046565b915061008c60208401610046565b90509250929050565b60805160a0516108af6100f860003960008181609201528181610146015261017201526000818161011d01528181610193015281816101de0152818161025901528181610287015281816102e00152818161035601526103b301526108af6000f3fe608060405234801561001057600080fd5b50600436106100625760003560e01c806313bac820146100675780632495a5991461008d57806354fd4d50146100cc5780637647691d146100fd578063a035b1fe14610110578063fc0c546a14610118575b600080fd5b61007a610075366004610726565b61013f565b6040519081526020015b60405180910390f35b6100b47f000000000000000000000000000000000000000000000000000000000000000081565b6040516001600160a01b039091168152602001610084565b6100f0604051806040016040528060058152602001640322e312e360dc1b81525081565b60405161008491906107be565b61007a61010b366004610726565b610252565b61007a6103af565b6100b47f000000000000000000000000000000000000000000000000000000000000000081565b600061016d7f0000000000000000000000000000000000000000000000000000000000000000333086610438565b6101b87f00000000000000000000000000000000000000000000000000000000000000007f000000000000000000000000000000000000000000000000000000000000000085610541565b604051636e553f6560e01b8152600481018490526001600160a01b0383811660248301527f00000000000000000000000000000000000000000000000000000000000000001690636e553f65906044016020604051808303816000875af1158015610227573d6000803e3d6000fd5b505050506040513d601f19601f8201168201806040525081019061024b91906107d1565b9392505050565b60006102807f0000000000000000000000000000000000000000000000000000000000000000333086610438565b60006102ac7f000000000000000000000000000000000000000000000000000000000000000030610638565b604051631cc6d2f960e31b8152600481018690526001600160a01b03858116602483015261271060448301529192506000917f0000000000000000000000000000000000000000000000000000000000000000169063e63697c8906064016020604051808303816000875af1158015610329573d6000803e3d6000fd5b505050506040513d601f19601f8201168201806040525081019061034d91906107d1565b9050600061037b7f000000000000000000000000000000000000000000000000000000000000000030610638565b90508561038882856107ea565b146103a657604051634a613c4160e01b815260040160405180910390fd5b50949350505050565b60007f00000000000000000000000000000000000000000000000000000000000000006001600160a01b03166399530b066040518163ffffffff1660e01b8152600401602060405180830381865afa15801561040f573d6000803e3d6000fd5b505050506040513d601f19601f8201168201806040525081019061043391906107d1565b905090565b604080516001600160a01b0385811660248301528481166044830152606480830185905283518084039091018152608490920183526020820180516001600160e01b03166323b872dd60e01b179052915160009283929088169161049c919061080f565b6000604051808303816000865af19150503d80600081146104d9576040519150601f19603f3d011682016040523d82523d6000602084013e6104de565b606091505b509150915081158061050c575080511580159061050c57508080602001905181019061050a919061082b565b155b156105395785828260405163e7e40b5b60e01b81526004016105309392919061084d565b60405180910390fd5b505050505050565b604080516001600160a01b038481166024830152604480830185905283518084039091018152606490920183526020820180516001600160e01b031663095ea7b360e01b179052915160009283929087169161059d919061080f565b6000604051808303816000865af19150503d80600081146105da576040519150601f19603f3d011682016040523d82523d6000602084013e6105df565b606091505b509150915081158061060d575080511580159061060d57508080602001905181019061060b919061082b565b155b156106315784828260405163e7e40b5b60e01b81526004016105309392919061084d565b5050505050565b604080516001600160a01b0383811660248084019190915283518084039091018152604490920183526020820180516001600160e01b03166370a0823160e01b17905291516000928392839291871691610692919061080f565b600060405180830381855afa9150503d80600081146106cd576040519150601f19603f3d011682016040523d82523d6000602084013e6106d2565b606091505b50915091508115806106e5575060208151105b156107095784828260405163e7e40b5b60e01b81526004016105309392919061084d565b8080602001905181019061071d91906107d1565b95945050505050565b6000806040838503121561073957600080fd5b8235915060208301356001600160a01b038116811461075757600080fd5b809150509250929050565b60005b8381101561077d578181015183820152602001610765565b8381111561078c576000848401525b50505050565b600081518084526107aa816020860160208601610762565b601f01601f19169290920160200192915050565b60208152600061024b6020830184610792565b6000602082840312156107e357600080fd5b5051919050565b60008282101561080a57634e487b7160e01b600052601160045260246000fd5b500390565b60008251610821818460208701610762565b9190910192915050565b60006020828403121561083d57600080fd5b8151801515811461024b57600080fd5b6001600160a01b0384168152821515602082015260606040820181905260009061071d9083018461079256fea2646970667358221220506a931c72821e4523a95daa9abe84ebec692231c9b25784e87afd5ad953504864736f6c634300080b0033",
  "devdoc": {
    "author": "Alchemix Finance",
    "errors": {
      "ERC20CallFailed(address,bool,bytes)": [
        {
          "params": {
            "data": "The resulting data from the call. This is error data when the call was not a success. Otherwise,                this is malformed data when the call was a success.",
            "success": "If the call to the token was a success.",
            "target": "The target address."
          }
        }
      ]
    },
    "kind": "dev",
    "methods": {
      "price()": {
        "returns": {
          "_0": "The price."
        }
      },
      "unwrap(uint256,address)": {
        "params": {
          "amount": "The amount of yield-tokens to redeem.",
          "recipient": "The recipient of the resulting underlying-tokens."
        },
        "returns": {
          "_0": "The amount of underlying tokens unwrapped to `recipient`."
        }
      },
      "wrap(uint256,address)": {
        "params": {
          "amount": "The amount of the underlying token to wrap.",
          "recipient": "The address which will receive the yield tokens."
        },
        "returns": {
          "_0": "The amount of yield tokens minted to `recipient`."
        }
      }
    },
    "stateVariables": {
      "token": {
        "return": "The address of the yield token.",
        "returns": {
          "_0": "The address of the yield token."
        }
      },
      "underlyingToken": {
        "return": "The address of the underlying token.",
        "returns": {
          "_0": "The address of the underlying token."
        }
      },
      "version": {
        "return": "The version.",
        "returns": {
          "_0": "The version."
        }
      }
    },
    "title": "YearnTokenAdapter",
    "version": 1
  },
  "userdoc": {
    "errors": {
      "ERC20CallFailed(address,bool,bytes)": [
        {
          "notice": "An error used to indicate that a call to an ERC20 contract failed."
        }
      ],
      "IllegalState()": [
        {
          "notice": "An error used to indicate that an action could not be completed because the contract either already existed         or entered an illegal condition which is not recoverable from."
        }
      ]
    },
    "kind": "user",
    "methods": {
      "price()": {
        "notice": "Gets the number of underlying tokens that a single whole yield token is redeemable for."
      },
      "token()": {
        "notice": "Gets the address of the yield token that this adapter supports."
      },
      "underlyingToken()": {
        "notice": "Gets the address of the underlying token that the yield token wraps."
      },
      "unwrap(uint256,address)": {
        "notice": "Unwraps `amount` yield tokens into the underlying token."
      },
      "version()": {
        "notice": "Gets the current version."
      },
      "wrap(uint256,address)": {
        "notice": "Wraps `amount` underlying tokens into the yield token."
      }
    },
    "version": 1
  },
  "storageLayout": {
    "storage": [],
    "types": null
  }
}